:020000040800F2
:100000002008002075010008090B000801090008FC
:1000100000000000000000000000000000000000E0
:100020000000000000000000000000009B0B000822
:100030000000000000000000990B0008850C00087B
:100040008701000887010008870100088701000870
:100050008701000887010008A10600088701000841
:100060008701000887010008870100088701000850
:100070008701000887010008870100088701000840
:10008000690D000887010008870100088701000842
:100090001909000887010008870100088701000886
:1000A0008701000887010008870100088701000810
:1000B0008701000887010008151000088701000863
:1000C00000F002F800F046F80CA030C808382418F8
:1000D0002D18A246671EAB4654465D46AC4201D180
:1000E00000F038F87E460F3E0FCCB646012633426C
:1000F00000D0FB1AA246AB46334318479C130000BE
:10010000BC130000103A02D378C878C1FAD852075D
:1001100001D330C830C101D504680C6070470000BD
:100120000023002400250026103A01D378C1FBD813
:10013000520700D330C100D50B60704710B5642959
:1001400002D100F07DF810BD002010BD1FB51FBD0D
:1001500010B510BD00F079FA1146FFF7F7FF01F076
:100160002DF800F091FA03B4FFF7F2FF03BC00F0A2
:10017000F9FF00000748804707480047FEE7FEE711
:10018000FEE7FEE7FEE7FEE704480549054A064BA1
:1001900070470000890C0008C10000082002002000
:1001A0002008002020040020200400200FB41CB5EB
:1001B000074B06AA7B4469460090059800F019FA9F
:1001C0000020694600F028FA1CBC08BC04B018479F
:1001D00061040000F8B50E46044600202062204667
:1001E000E1688847002829D0252802D06268A168E4
:1001F00020E0E16820460027884705001ED02846F9
:100200004138192802D80127FF02203532462046FE
:1002100027602946FFF792FF002808D0012804D064
:10022000F61DF608F6000836D9E7361DD7E76268EE
:100230002846A1689047206A401CCFE7206AF8BD95
:10024000F7B5002575291068009914A611D0C0468D
:10025000C046002802DA404211A608E00099096869
:100260008A0701D50FA602E0490704D50EA601258D
:1002700001E0C046C046009F0024243704E000F09F
:10028000D0F930313955641C0028F8D12B4632465C
:100290002146009800F04FF9FEBD0000000000006C
:1002A0002D0000002B0000002000000030B5441C91
:1002B00003E00178401C00290DD08107F9D10B4BD8
:1002C000DD0104C8D11A91432940FAD0001B0A0667
:1002D00003D0C01E30BD001B30BD0A0401D0801EFB
:1002E00030BD0902FCD0401E30BD000001010101FB
:1002F000002101E0801C491C0288002AFAD108462E
:10030000704701E004C0091F0429FBD28B0701D507
:100310000280801CC90700D00270704700290BD0F2
:10032000C30702D00270401C491E022904D3830770
:1003300002D50280801C891EE3E70022EEE700223E
:10034000DFE7704770477047F0B5FF252D04C609F9
:10035000C209FF2704462E400137CB093E434840DF
:100360002A402B400746002A6BD0002B69D0AA42B6
:1003700067D0AB4265D0002800DA32460125ED0592
:1003800029432C4309022002090AD21A4B0C7F246C
:10039000E31A434C000A7C44E35C7D2424041219D4
:1003A00014145B00A218884201D3521C00E04000E4
:1003B00049420C465C4324115C43DB016415E3189D
:1003C000040A5C43C502200D0C4644436419250A07
:1003D0005D432303EC0C0D46654300030019EB1845
:1003E0004C42A34201D35B18401CD4052018002BBB
:1003F00007D05B00C91804D3401C002901D1400874
:1004000040003F2189048A4209D3002A08DC1106F2
:10041000090F04D0032149074018C00FC007F0BDE1
:1004200001224100120689187F2252069142F6D21B
:1004300005214907C84201D59010F0BDFF20C00535
:10044000F0BD002F00DA32461648AA4207D2AB426E
:1004500005D21902090E17D0F80FC007F0BDFF250D
:1004600063002D06AB42F9D84900A942F6D8AB4249
:1004700001D1A942F2D0A94201D1002101E06100DD
:100480004908D0050843F0BD1102090EFBD0FF203A
:100490000243D005F0BD0A460146104654E700006D
:1004A000BE1000000000C07F0102C21504D001236D
:1004B000DB071943002A0ADB9E239A1A02D4084656
:1004C000D0407047FF2241001206914201D900201E
:1004D0007047C017C04370471F22030C02D10F2280
:1004E00000041CD0030E01D10002083A030F01D111
:1004F0000001121F830F01D18000921E002801DB32
:100500004000521ED2055118021251181922904073
:1005100004D3491C002801D1490849000846704706
:10052000C10FC90700D04042012292071143D3E70F
:1005300001218907D0E7FFB504460D4681B024307C
:1005400000902168880604D51022E069914321605B
:1005500000E00120A84201DD471B00E000270498CD
:10056000A1697A191018081AA0612078C00602D46F
:100570002046C046C046002608E003986268A1688D
:10058000805D9047206A401C761C20620498864259
:10059000F3DB2078C0060AD52046C046C04606E0F8
:1005A0006268A16830209047206A401C206238466B
:1005B0007F1E0028F4DC07E000986268A168405DB7
:1005C0009047206A401C206228466D1E0028F3DCFC
:1005D0002046C046C0462078000602D5022005B05D
:1005E000F0BD0120FBE7000001694A1C02610878A8
:1005F000704700B58FB00291002105910549019324
:1006000079440391114604906846FFF7E3FD0FB06B
:1006100000BD0000E5FFFFFF0A681070521C0A6071
:10062000704701468008081A02091018020A1018BB
:10063000020C1018C008820012185200891A01E03A
:10064000401C0A390A29FBD27047754600F024F88D
:10065000AE46050069465346C008C000854618B03E
:1006600020B5FFF791FD60BC00274908B64600267B
:10067000C0C5C0C5C0C5C0C5C0C5C0C5C0C5C0C552
:10068000403D49008D46704710B50446C046C046FF
:100690002046FFF768FD10BD00487047BC010020F0
:1006A00000B51D48406902210840002832D01A4890
:1006B0004069084318494861184880890121084366
:1006C00016498881002015492031888000BF1348D1
:1006D000203080883428FADA114800690221084065
:1006E00000280ED10D492031888000F03DFD012009
:1006F0000C49087000200C49087001200B49087053
:1007000008E00648808940084000044988810020AC
:100710000649087000BD00000004014000100040C0
:10072000000C0140180000205D0000201A0000208D
:100730006E488069042108436C49886108468069D5
:1007400008210843694988610846806901210843F6
:1007500066498861664800680321890488436449C2
:100760000860084600688008800008600846006845
:100770000321090288435E49086008460068032196
:10078000090588435A490860084600680121890420
:100790000843574908600846006801210843544946
:1007A00008600846006889150843514908600846F2
:1007B00000680121090508434D4908600846406862
:1007C0000121890488434A49486008464068400836
:1007D000400048600846406889158843444948609D
:1007E0000846406801210905884341494860084698
:1007F000C0680321890488433D49C8600846C06831
:1008000080088000C8600846C06803210902884348
:100810003749C8600846C068032109058843344940
:10082000C8600846C068491508433149C860084691
:100830008068304908402E498860084600682E4983
:1008400008402B490860084600682C49084328499D
:1008500008600846406802218843254948600846E8
:10086000406880218843224948600846C068224980
:1008700008401F49C8600846C068204908431C4911
:10088000C86008468068A2218843194988600846E4
:1008900000680F21890288431549086008460068EE
:1008A0000521890208431249086008464068202152
:1008B00088430F49486008464068402188430C49F6
:1008C00048600846C0680321090388430849C86096
:1008D0000846C068891408430549C860084680680E
:1008E00040218843024988607047000000100240A0
:1008F00000080140EEF9FFFFF33FFFFF0440000056
:1009000000BFFEE710B5FFF713FF00F079FA692189
:100910002F2000F04FFA10BD00B549480069C0070C
:10092000C00F002815D0474800780A287DDA4648CD
:1009300000690221084040084449424A127888541C
:1009400040480078092805DA3E480078401C3D49B7
:1009500008706DE03D480078002834D13B48407A6B
:10096000012830D1364880894008400034498881C8
:1009700000F048FC354840783449897849004018EF
:100980003249C9788900401830490979C9004018AE
:100990002E494979090140182C49897949014018A3
:1009A0002A49C979890140182849097AC90140189A
:1009B000C3B2002023490870184600F03BFB00201A
:1009C0002349087034E0234801780078401C214A0C
:1009D00010700A290BDD1A48808940084000184928
:1009E000888100F00FFC00201949087000BD1748ED
:1009F0004078164908700846807848700846C078E4
:100A0000887008460079C870084640790871084621
:100A1000807948710846C07988710846007AC871A3
:100A20000846407A087203E0FFE700200549087095
:100A300003480069400840000149086100BFD5E74C
:100A40000010004018000020000C01405D00002054
:100A50001A0000201900002070B505460020234927
:100A6000087023480088002801D1224C26E0204845
:100A70000088012802D1E12464011FE01C4800889D
:100A8000022801D11C4C19E019480088032802D122
:100A90001924A40112E016480088042802D17D24FC
:100AA000E4000BE012480088052802D1FF24F53449
:100AB00004E00F480088062800D1FA2400200F49DE
:100AC0000870601E81B22F2000F018F900200C4938
:100AD00088800C48807F1E2807DA0A48817F807F43
:100AE000401C084A90771046455470BD1B000020FA
:100AF00038000020B0360000AC0D000016000020C9
:100B0000200400406800002070470000C206D20E9A
:100B100001219140014A11607047000000E100E0AE
:100B200010B5002819DA1A4A03071B0F083B9B0867
:100B30009B00D2588307DC0EFF23A3409A438B0708
:100B40001B0E8407E40EA3401A43114B0407240F25
:100B5000083CA408A4001A5118E00E4A03231B0203
:100B6000D21883089B00D2588307DC0EFF23A340D2
:100B70009A438B071B0E8407E40EA3401A43054BD0
:100B8000032424021B198408A4001A5110BD00007C
:100B90001CED00E000E100E07047704710B5002058
:100BA00000220021334B1B6801242343314C236076
:100BB00000BF304B1B68022423405908521C0029F7
:100BC00003D105231B029A42F3D12A4B1B6802244E
:100BD00023405908002901D100BFFEE7264B1B68BE
:100BE0009B089B00244C236023461B68022423435C
:100BF000214C23601F4B5B681E4C636023465B687F
:100C00000324A405A3431B4C636023465B681B4C71
:100C10002340184C63602346586800BF03231B041D
:100C2000184300BF00BF234658601B6801242406F8
:100C30002343104C236000BF0E4B1B680124640645
:100C40002340002BF8D00B4B5B68DB08DB00094C22
:100C5000636023465B6802242343064C636000BF45
:100C6000044B5B68064C23400124A403A342F7D144
:100C700010BD00000010024000200240FFFFC0FE37
:100C800008C000007047000010B517480068012137
:100C9000084315490860084640681449084012494D
:100CA000486008460068124908400F490860084635
:100CB00000680121890588430B490860084640689F
:100CC0000C490840084948600720C002C862BF209C
:100CD000000488600848006810210843064908603D
:100CE000FFF75CFF10BD0000001002400000FF2174
:100CF000FFFFF6FEFFFF00FE0020024070B5044635
:100D00000D461748C069022108431549C8611548B6
:100D10000581848113482038006804210843114963
:100D200020390860084600683721090188430D49C9
:100D300020390860084600688121084309492039A4
:100D400008600846808901210843064920398881C6
:100D500001211020FFF7E4FE1020FFF7D7FE70BD41
:100D600000100240200400400F480069C007C00F77
:100D7000002812D00D480078002809D001200C4925
:100D8000087009488089400840000749888104E0CC
:100D900006480078401C054908700348006940086F
:100DA000400001490861704700040040160000201F
:100DB0001B00002070B504460D460F48C069102185
:100DC00008430D49C8610D488481058181200B4984
:100DD0002039086000200861084680890121084305
:100DE00006492039888103211420FFF799FE142039
:100DF000FFF78CFE70BD0000001002402010004084
:100E0000F0B585B002257D488069042108437B49FF
:100E10008861084680696903084378498861784891
:100E20000068F02188437649086008460068A021E0
:100E3000084373490860084640680C21884370499C
:100E400048600846C068F02188436D49C86008467C
:100E5000C068502108436A49C860084680680C2170
:100E60008843674988600846006AFF210902884371
:100E7000634908620846006A8915084360490862A8
:100E80000846006A891408435D4908625D48008885
:100E9000012802D14B24A40124E05A4800880228EA
:100EA00002D14B24E4011DE056480088032802D1FA
:100EB0004B24240216E053480088042802D14B2416
:100EC00064020FE04F480088052802D1E124240283
:100ED00008E04C480088062802D1E124640201E0C1
:100EE0004B2464012001FFF723FB01460290464892
:100EF000FFF72AFA07463846FFF7D6FA86B2304699
:100F0000FFF716FB3946009000F032FA8321C9053D
:100F1000019000F0D5F90290FFF7C6FA80B2039075
:100F20003005060C0398301886B238480681002D2B
:100F300001D0012D07D135488089012109030843DB
:100F40003249888105E031488089314908402F497C
:100F500088812E48008A0321090388432B4908828F
:100F6000002D0CD10846808909150843274988813E
:100F700008468089491588432449888115E0012D58
:100F80000CD122488089A90208432049888108465B
:100F90008089491508431D49888106E01B488089DE
:100FA000012189028843194988811848808A0721CC
:100FB0000902884315498882084680890821084328
:100FC0001249888108468089042108430F49888195
:100FD00008468089202108430C49888100211E2071
:100FE000FFF79EFD1E20FFF791FD08488089012133
:100FF000490308430549888105B0F0BD001002404F
:101000000008014038000020001B374C0038014028
:10101000EFFFFF0010B50648008820210840002897
:1010200004D003498988C8B2FFF716FD10BD00003F
:101030000038014012494978114A117011468978E7
:1010400051701146C978917011460979D1701146D5
:10105000497911711146897951711146C979917196
:101060001146097AD1711146497A11721146897A6D
:1010700051721146C97A91721146C87270470000C8
:1010800050000020FEB505460E463046FFF70EF92B
:1010900002900024002161E0725C80231A40002A43
:1010A00001D1012210E0725C920080231A40002AD4
:1010B00001D1022208E0725CD20080231A40002A8B
:1010C00001D1032200E004220192019A022A07DAE8
:1010D0000A46491CB35C2246641C5200AB523DE0F8
:1010E0000A46491CB35C019A521CFF2717411A4655
:1010F0003A40009201220BE0009B9B0100930B46BB
:10110000491CF35C9B069B0E009F3B430093521CC3
:10111000019B9A42F0DB009A100E002801D0620079
:10112000A852009A1202100E002806D06200AA5C93
:10113000120212186300EA52641C009A1204100E84
:101140006200A852009AD0B2002806D06200AA5CC1
:10115000120212186300EA52641C00BF0298814216
:101160009ADBFEBD00BF704712488068F0218843BB
:101170001049886008468068102108430D4988603E
:101180000D480068022188430B4908600846406802
:1011900002218843084948600846C0680221084384
:1011A0000549C86008468068022188430249886072
:1011B000704700000000014000040140B2B0FFF79A
:1011C00063FDFFF79FFB6424642119A8FFF7B7F8BC
:1011D00064216846FFF7B3F8224607A119A8FEF775
:1011E000E5FF19A96846FFF74DFF6846FFF780F84D
:1011F0000349086000BFFEE74F6CC3A13A256400B5
:1012000008000020094880681021084307498860C9
:101210000748006802210843054908600846C0687D
:10122000022108430249C8607047000000000140E5
:101230000004014070B501250400ED074C4020D4A6
:10124000441A01D2001B0919C60D4B00F2B2FF2A45
:1012500029D01B0E2CD000020C02D31A2C43DC40E8
:101260002843051910D2280A02D3401C6D0611D05C
:10127000761EF6058019FF2A00DA70BDC00DC00584
:1012800070BD694000F086F801200543C541521C3D
:10129000761CE8E764089C40C90161408900E7D1F9
:1012A0000124A043E4E71B0E440200D0034870BDB4
:1012B000002AFCD1C00FC00770BD00BF0000C07F76
:1012C00070B5420064414B005C41120E39D01B0ED8
:1012D00038D0FF2A3CD0FF2B3AD040024902400AC6
:1012E000490A060045184E43000A090AD218484325
:1012F000ED017F3A0104731A4019190C4318990F34
:1013000004D001215B0849075B1A521CD80904D399
:10131000401CF50301D19D0607D0FF2A08D2D50550
:1013200006D0E4072043401970BD0125A843F4E727
:10133000002A01DCE00770BD2402FF202043C00525
:1013400070BD1B0EFF2A03D0FF2B01D0E00770BD3C
:10135000FF2645003606B54206D84D00B54203D8F3
:10136000D218FF2A00D0E7E7004870BD0000C07F18
:1013700070B50125ED07684004004C4002D5694076
:1013800000F008F8FFF75CFF70B501250400ED07D9
:101390004C4022D4441A02D26C40001B0919C60DDD
:1013A0004B00F2B2FF2A4BD01B0E50D000020C02B1
:1013B000D31A2C43DC40A843051B05D5AD0019D337
:1013C0006D08761E521E37D0F605280A01D2801904
:1013D00070BD70416D0603D070BD6940FFF730FFEE
:1013E0009C4009026140490001D0401E70BD0124AB
:1013F000A04370BD6D081DD001202B0C01D12D0420
:1014000010302B0E01D12D0208302B0F01D12D01F0
:10141000001DAB0F01D1AD00801CEB0F01D16D00A1
:10142000401C6D00361A121A680AF5054019012A87
:1014300002DB70BD002070BDC036300AC00770BD31
:101440001B0E440201D1FF2B00D1024870BD002ABF
:10145000F0D070BD0000C07F81828384858687883C
:10146000898B8C8D8E8F919293959697999A9C9D4E
:101470009FA0A2A3A5A7A8AAACAEB0B2B3B5B7B9B6
:10148000BCBEC0C2C5C7C9CCCED1D4D7D9DCDFE27F
:10149000E6E9ECF0F3F7FAFEB814000800000020CB
:1014A000500000000401000808150008500000204A
:1014B000D00700002001000800000000000000002C
:1014C0000000000000000000E80300000000000031
:1014D000000000000000000000000000000000000C
:1014E00000000000000000000000000000000000FC
:1014F000000000000000000000000000CDAB103232
:081500000000000000000000E3
:04000005080000C12E
:00000001FF
